:020000040000FA
:100000000128831203130030870083160313033083
:100010009F008312031341309F0083120313FF30AC
:10002000920083120313003095000C309700831662
:100030000313071183120313073092009101121565
:1000400027281F151F1922281E08B60008000000C7
:100050008312031321201E089930B60203194E287B
:1000600003184E28360866309E0203193A280318F2
:1000700062283A280430860083120313FF3092006E
:1000800083120313003095000C309700831603137E
:1000900007118312031307309200272801308600CE
:1000A0008312031352309200831203130830950019
:1000B0001C309700831603130711831203130530B6
:1000C000920027280230860083120313F930920031
:1000D00083120313183095003C30970083160313E6
:0C00E0000711831203130530920027283B
:00000001FF
